{
  "transactions": [
    {
      "hash": "0x0dd438a6d732d37cdc909c125fbf2e64a84c5d1a741b974ba1c00ff23f8b9403",
      "transactionType": "CALL",
      "contractName": null,
      "contractAddress": "0x47c71f38e9646c820b3c78c7a630fbb646add81c",
      "function": "mintNFT(string)",
      "arguments": [
        "ipfs://bafybeig37ioir76s7mg5oobetncojcm3c3hxasyd4rvid4jqhy4gkaheg4/?filename=0-PUG.json"
      ],
      "transaction": {
        "from": "0x622fb7909f44bd0300bd6a5360a9fcb003bcb9cd",
        "to": "0x47c71f38e9646c820b3c78c7a630fbb646add81c",
        "gas": "0x414a6",
        "value": "0x0",
        "input": "0xfb37e88300000000000000000000000000000000000000000000000000000000000000200000000000000000000000000000000000000000000000000000000000000057697066733a2f2f62616679626569673337696f6972373673376d67356f6f6265746e636f6a636d3363336878617379643472766964346a71687934676b61686567342f3f66696c656e616d653d302d5055472e6a736f6e000000000000000000",
        "nonce": "0xc",
        "chainId": "0xaa36a7"
      },
      "additionalContracts": [],
      "isFixedGasLimit": false
    }
  ],
  "receipts": [
    {
      "status": "0x1",
      "cumulativeGasUsed": "0x20ecae7",
      "logs": [
        {
          "address": "0x47c71f38e9646c820b3c78c7a630fbb646add81c",
          "topics": [
            "0xddf252ad1be2c89b69c2b068fc378daa952ba7f163c4a11628f55a4df523b3ef",
            "0x0000000000000000000000000000000000000000000000000000000000000000",
            "0x000000000000000000000000622fb7909f44bd0300bd6a5360a9fcb003bcb9cd",
            "0x0000000000000000000000000000000000000000000000000000000000000000"
          ],
          "data": "0x",
          "blockHash": "0x8e47a85bf567071cd28fbeacacaa2ac318fbbf880d82727726e38a4a43625c1e",
          "blockNumber": "0x86a02f",
          "blockTimestamp": "0x688072bc",
          "transactionHash": "0x0dd438a6d732d37cdc909c125fbf2e64a84c5d1a741b974ba1c00ff23f8b9403",
          "transactionIndex": "0xc0",
          "logIndex": "0x189",
          "removed": false
        }
      ],
      "logsBloom": "0x00000000000000000001000000000000000000000000000000000000000000000000000000000000000000000000000000000000000000000000000000000000000000000000000002000008000000000000000000000000000000000000000000000000020000000010000000000800000000000100000000000010000000000000000000000000000000000000000000100000000000000000000000000000000000000000000000000000000000000000000000000000000000000000000000000002000000000000000000000000000000400000000000000000000020000000000000000000000000000000000000000000000000000000000000000000",
      "type": "0x2",
      "transactionHash": "0x0dd438a6d732d37cdc909c125fbf2e64a84c5d1a741b974ba1c00ff23f8b9403",
      "transactionIndex": "0xc0",
      "blockHash": "0x8e47a85bf567071cd28fbeacacaa2ac318fbbf880d82727726e38a4a43625c1e",
      "blockNumber": "0x86a02f",
      "gasUsed": "0x2ca4b",
      "effectiveGasPrice": "0x1101a1168",
      "from": "0x622fb7909f44bd0300bd6a5360a9fcb003bcb9cd",
      "to": "0x47c71f38e9646c820b3c78c7a630fbb646add81c",
      "contractAddress": null
    }
  ],
  "libraries": [],
  "pending": [],
  "returns": {},
  "timestamp": 1753248450,
  "chain": 11155111,
  "commit": null
}